:020000002F28A7
:0E0006008312031324088A00230882000800D6
:1000140003208A110A128000840AA30A0319A40A7D
:08002400F003031D0A28080087
:10002C00831203137008F100F0010830FC00710812
:10003C00F40C03182528FC0B1E28F10100340310C6
:10004C002A28F40C0318F107F10CF00CFC0B2728F0
:02005C0008009A
:10005E00073083120313A000A101A20183168601AB
:10006E000F30880083128817200886000630FB00A8
:10007E001330FC00AD30FD00FD0B4328FC0B432874
:10008E00FB0B43280000000083168701831288199A
:10009E006C280608F000F00D70107008A5007008AE
:1000AE008600061B5C2806105D28061406138613B0
:1000BE000230FB000430FC00BA30FD00FD0B652859
:1000CE00FC0B6528FB0B6528000008199228081800
:1000DE00722822107328221488187728A2107828E4
:1000EE00A2142208F0002208F40016207008A200C4
:1000FE007008A000A101A201200886000230FB00BA
:10010E000430FC00BA30FD00FD0B8B28FC0B8B2855
:10011E00FB0B8B28000000302106031D98282008B9
:10012E000606031DA82807150230FB008630FC00CA
:10013E009930FD00FD0BA128FC0BA128FB0BA1287B
:10014E00B52807110230FB008630FC009930FD0007
:10015E00FD0BAF28FC0BAF28FB0BAF284D28B628A4
:02400E004A2F37
:00000001FF
